:1000000016C01BC01AC019C018C017C016C015C032
:1000100014C013C04E41434B54454D503A2020204C
:10002000204348554D49443A202520526800112468
:100030001FBECFE9CDBF7BD1E0C1E2CF0370D0E0DE
:10004000C8E2ACD0802F15D183E098D0D0E0C5E0D5
:10005000A5D083E093D0D0E0C8E7A7D083E08ED0CE
:1000600082E08CD088E290E07BD08CE090E078D089
:100070000DD086E090E074D008957F9370E490FDF9
:10008000870F806890E06CD07F91089581E090E0C8
:1000900067D0D0E0C2E082D008955F93582F859159
:1000A00004D05A95E1F75F91089591E059D00895F1
:1000B0007F9370E08F70882311F480E381F099E0E2
:1000C00073958A9511F09A95D9F7882311F480E3F6
:1000D00031F070E073958A95E9F77A9581E4870F9E
:1000E00091E03ED07F9108956F93682F8295E0DF75
:1000F000862FDEDF6F9108959F938F9390E08A5053
:1001000010F09395FCCF9F93882321F080E3890F13
:10011000CCDF02C080E2C9DF9F917F9380E07AE06C
:10012000870F9A95E9F77F919F91981B80E3890F3C
:10013000BCDF8EE2BADF9F917F936F9362E080E035
:100140007AE0990F08F483957A95D9F770E3870FD1
:100150009F93ABDF9F916A9591F76F917F9108957F
:100160006F93077F90FD0860682F802F82D0862FC5
:10017000829504D0862F02D06F9108958295807F5A
:100180000F70082B802F75D00460802F72D00B7FEA
:10019000802F6FD0D0E0C5E208D00895A0E6B9E086
:1001A0001197F1F72197D1F70895000000000000A2
:1001B0000000000000002197C1F70895BB9ABC9A87
:1001C000C398C498BB98BC980895BB9A00000000DF
:1001D000BC9A0895BC9800000000BB980895880F51
:1001E000892B98E0BB9887FFBB9A880FBC98D0E01A
:1001F000C1E0DBDFBC9A9A95A9F7BB98BC98D0E028
:10020000C1E0D3DFB3998160BC9A089598E0BB98B0
:1002100087FFBB9A880FBC98D0E0C1E0C6DFBC9ACC
:100220009A95A9F7BB98BC98D0E0C1E0BEDFB3991E
:100230008160BC9A08959F9398E0BC98880FD0E0A5
:10024000C1E0B3DFB3998160BC9A9A95B1F79F91F1
:1002500090FF08C0BB9ABC98D0E0C1E0A6DFBC9A72
:10026000BB980895BB98BC98D0E0C1E09EDFBC9AD3
:100270000895C09898E0C29887FDC29AC19A880FE5
:100280009A95C198C1F7C09A0895882309F40895F2
:10029000FDDE80E090E0F1DE9DDF84E0E4E1F0E06F
:1002A000FCDEA0C088E39BDFF0DF0895AFDFEDDF69
:1002B00008958BDF90E0F6DF81E7F8DF8BDF85DFE5
:1002C00091E0F0DF90E0B7DF85DF0895F2DF87FD92
:1002D000FDCF08957ADF90E0E5DF8EEBE7DF88E081
:1002E000E5DF80E0E3DF76DFD0E0CAE057DF0895A6
:1002F0004F933F932F9340E030E020E0480F371FAB
:10030000261F9A95D9F7842F732F622F1F912F9153
:100310003F910895D0E0C4E141DF50DF8FDE80E0FF
:1003200090E0ABDED3DF83FFD5DFD0DF0895A89563
:1003300004B7102F077F04BF01B5086101BD00E0BD
:1003400001BD00E0BA9AB99AB89AC09837DF13FF96
:10035000E1DF3BDF90E0A6DF8CEAA8DF83E3A6DFE6
:1003600080E0A4DF37DFD0E0C5E518DFAFDF2DDFA9
:1003700091E098DF91E05FDF74E091E05CDF8F93C4
:100380007A95D9F790E057DF25DF80E090E075DEC1
:1003900087E0E8E1F0E081DE7F916F9154E06795BE
:1003A000779587955A95D9F760E098ECA1DF62536D
:1003B000862F972FA1DE83E0EFE1F0E06EDE80E094
:1003C00091E05BDE87E0E2E2F0E067DE8F917F9113
:1003D00060E094E68DDF862F972F8EDE84E0E9E2E1
:1003E000F0E05BDEA89501B5086101BD09E201BD41
:0E03F00005B7077F006305BF8895F894FFCF1F
:00000001FF
